S01F00006275696C642F72656C656173652F626D735F73656E736F722E7333374B
S214000000001000208D0400001D2F0000212F00008E
S21400001075E20100252F00002D2F000075E201007B
S21400002075E2010075E2010075E2010075E201006B
S214000030312F000075E2010075E2010075E2010053
S214000040DD8A00003D1F020075E20100F1D60000C7
S2140000504D1F0200491F0200A9DD0000411F0200DB
S21400006075E2010075E2010075E20100D18600002C
S21400007075E2010075E2010075E2010075E201001B
S21400008075E2010075E2010075E2010075E201000B
S21400009075E2010075E2010075E2010075E20100FB
S2140000A075E2010075E2010075E20100DDDD000089
S2140000B0451F0200D53D000019DE000075E2010074
S2140000C041FF000075E201002DE9F04F97B0984619
S2140000D04FF0310A0DF11F0309AC0393CDF808A0C9
S2140000E001940389009383799DF888B005460F46EE
S2140000F091464188828840781FF09AFE064600287E
S2140001004BD19DF81F001FF092FB00285ED19DF892
S2140001101F00524621461FF05FFB0346002857D0BB
S214000120209A1AB1BDF88420904251D89DF81FA09D
S214000130AAF14100002201280892D9B224D8013938
S2140001405FFA81FE2649A446724516DB0891042113
S214000150BBF1000F1BD108AC22480593182202FB06
S21400016007059FED1D7B28460A460830214685ED8B
S214000170027B21F066F8059B15E01CF8010F48404D
S214000180194901324143DFE7BBF1000F09D0009760
S2140001902B465246204605F08FF9304617B0BDE88C
S2140001A0F08F0829D8D9B9F1000F01D089F800A03E
S2140001B0B8F1000F01D0A8F80030209A002AECD041
S2140001C020981A4609A921F03CF8E6E78D26E4E7D0
S2140001D00126E2E7AFF30080000000000000000008
S2140001E0C59D1C81A814002093010001000000009A
S2140001F070B58EB02C22002103A821F05AF8642393
S2140002004FF00232CDE9052308930B238DF83430E6
S214000210514B1B880121D8078DF8101000F19680ED
S214000220084610F033F84D4B4D494E484E4C0A22C6
S2140002301A704FF42873ADF812300FF07FF9206073
S21400024020B94A484FF417711EF0E0FB20680521DC
S21400025022F086F820B145484FF41B711EF0D6FBFD
S214000260206807F081FF424B2068196821F003FDE3
S21400027010F0DCFE0C256843099010F0D7FE6843AA
S21400028007900DEB050120680AF0D8FE20B137482C
S21400029040F281211EF0BAFB36492068002221F088
S2140002A070FD20B1314840F283211EF0AFFB324E84
S2140002B0324D96F9000040F203532B807F284FF012
S2140002C00503AB7001D110F03FF93378EB7010F0F6
S2140002D0ADFE00EB80008000A88010F0A7FE002393
S2140002E0C000E880AB604FF0FF3019A3D3E90023CD
S2140002F04FF0FF3110F086F92149206822F032F9DC
S214000300206802A921F01CFD20B118484FF42F7177
S2140003101EF07CFB042220680DEB020121F099FC04
S214000320042804D0114840F2BF211EF06FFB01A93B
S214000330012022F04BFA02F035FE012011F006F9FA
S2140003401EF066F911F02CF910F024F80EB070BD0E
S2140003500A0020FF420300003A580020D66E002014
S214000360B5020100B0110020205300205AD0020030
S214000370D0100020E46E0020271400201453002024
S214000380550401000348044B834202D0034B03B1DB
S214000390184770475814002058140020000000002A
S2140003A00548064B1B1AD90F01EBA301491002D0D2
S2140003B0034B03B118477047581400205814002008
S2140003C00000000010B5064C237843B9FFF7DAFFAB
S2140003D0044B13B10448AFF300800123237010BD13
S2140003E0AC58002000000000DCD2020008B5054B27
S2140003F01BB105490548AFF30080BDE80840FFF78C
S214000400CFBF00BF0000000090280020DCD2020012
S214000410A3F5803A704700BF174B002B08BF134B5D
S2140004209D46FFF7F5FF00218B460F461348144AFA
S214000430121A20F03EFF0E4B002B00D098470D4BB3
S214000440002B00D098470020002104000D000D4826
S214000450002802D00C48AFF3008008F0E7FF200029
S214000460290008F0FDF808F0CFFF00BF00000800E4
S21400047000000000000000000010002058140020BB
S2140004802C6F0020000000000000000008B500F0FF
S2140004907DF8124B12498B4212D3124B12490020A0
S2140004A08B4218D3FFF7B8FF186850F822405868F8
S2140004B040F82240013298688242F5D30C33EAE7CE
S2140004C00022F8E71C6844F8220001325C68A24269
S2140004D0F8D30833E4E70022F8E700BF48D4020068
S2140004E054D4020054D4020054D40200004870478A
S2140004F000F049020D4AD2F8943003F00703032BAC
S21400050011D0042B03D0022B0BD1094B00E0094B72
S2140005101868D2F80031C3F304230133B0FBF3F0BC
S2140005207047054BF4E74FF40040F2E700400E40FA
S214000530A4100020A01000209810002008B5FFF797
S214000540D9FF054BD3F80831C3F308230133B0FBBA
S214000550F3F0024B186008BD00400E409C100020CF
S214000560014B1868704700BFA4100020054B1860A8
S214000570054BD3F8943003F00703022B01D1FFF7A5
S214000580DDBF7047A410002000400E400D4B0E4A01
S2140005909A60D3F8882042F47002C3F888200B4B88
S2140005A05A6D42F400525A651A6C22F003021A641D
S2140005B05A6F22F001025A671A6E22F080521A66AB
S2140005C0704700BF00ED00E00000000000300E4065
S2140005D0014B1868704700BFA0100020024B196836
S2140005E0024B18680AF0C6B8A8100020C8100020F1
S2140005F070B59400224605460E461DF0B5FF431C16
S2140006000AD058B922463146284620F028FE00284F
S214000610034808BF002070BD0248FCE70248FAE71E
S21400062010E000F021E000F024E000F010B50446F1
S21400063001F0A8FA431C10D088B901F091FB20F015
S214000640030023462044984201D1002010BD53F8F1
S214000650042B0132F7D00348F8E70348F6E70348CF
S214000660F4E700BF0EE000F021E000F024E000F028
S21400067008B51DF03EFE014B186008BDF838002096
S214000680014B18681DF039BEF8380020044A00EB0C
S21400069080031068A0EBE30080F3080080B2704788
S2140006A02C39002038B51B4B40289D681EDD4F288E
S2140006B0CCBF02230123184A184C02EBC30292E86F
S2140006C00300174A02EBC30284E8030092E8030023
S2140006D0144C012D84E803000AD0012B16D0022BFF
S2140006E014D00020BDE8384001F000B90023E2E74E
S2140006F0084C4AF6E852012BA26009D0022B07D01C
S214000700002001F0F3F80023A36038BD1846E9E79F
S2140007101846F6E700300E40FC38002070390020FE
S2140007201439002040390020044B4FF04042DA6272
S2140007301A6B22F040421A63704700BF00300E402A
S214000740F0B52D4C2D4A236800210846156845B1A2
S2140007501D68002D42D09D889688AE4284BF134601
S21400076001210130062802F10802EFD101B1236011
S2140007702348244A036800210D46166846B11E68C1
S214000780002E2ED09E889788B7423CBF1346012184
S2140007900135062D02F10802EFD101B1036022688F
S2140007A0194B116801B3D969127921F0FF010A4388
S2140007B0DA611A6B42F080421A630368124A1968BB
S2140007C0B1B19B88D1691B029BB221F47F410B43D8
S2140007D0D361136B43F000431363F0BD134601214E
S2140007E0BFE713460121D3E71A6B22F08042E3E706
S2140007F0136B23F00043EFE73439002070390020F4
S214000800303900204039002000300E4008B501F095
S214000810B1F89FED127A07EE900AF4EEC77AF1EE81
S21400082010FA18D49FED0E7AF4EE477AF1EE10FA2D
S214000830C8BFF0EE477AB6EE007A77EE877A9FED7D
S214000840097A77EE877AFDEEE77A17EE903AA3F10B
S214000850800040B208BDF0EE477AECE7000000C327
S2140008600000FE420000004370B5144C236B626A21
S214000870134011D5124B1B681E6836B100251D604B
S2140008805D60FFF7C3FF2946B0474FF00043E362C1
S214000890BDE87040FFF754BF5B00F9D5094B1B68F5
S2140008A01C6834B100221A605A60FFF7AFFF0121BE
S2140008B0A047024B4FF08042DA62E9E700300E4074
S2140008C030390020343900202A4B012273B51A70C3
S2140008D000213022284820F0ECFC30222748002156
S2140008E020F0E7FC264A274B1360274A1360274A66
S2140008F0D2F8B030D2F80421C3F30743FF2B02D05E
S214000900D2B2FF2A01D19022192303EB830302EB14
S214000910D3021F4B01A81A6001F0FCF99DF80530C0
S214000920012B1BD14120FFF7B1FE1A4D1A4CA880AF
S21400093039202C60FFF7AAFE06465020FFF7A6FED9
S2140009401649A88148208E818C60AC60FFF79EFE19
S2140009500C618882FFF75AFFFFF7A4FEFFF7E4FE5C
S2140009600F4B0122C3F880211A60FFF7E9FE002032
S21400097002B070BDAD58002070390020403900200C
S2140009803439002038390020303900200081E00F4B
S2140009902C390020FC380020E5E201001439002044
S2140009A000E100E00C4B984205D90C4B984210D859
S2140009B00122012301E00022134609490B6409497C
S2140009C0D1F8003123F0807343EA0263C1F80031A6
S2140009D070470222EDE700BF0048E8010090D00310
S2140009E00000C84300400E40044BD3F84421D20711
S2140009F003D4D3F840211042FBD1704700400E408C
S214000A000A4B0B4998424A680BD90A4B98420AD9B6
S214000A1002F040724B6823F0407343EA02634B6077
S214000A2070470022F6E70122F4E700BF40787D0118
S214000A3000000E40005A620238B5074C41F671338A
S214000A40256C2364FFF752FDADB2FFF7D9FF0DB159
S214000A500023236438BD00BF00000E4038B5064CA6
S214000A60256C41F671332364ADB2FFF7C9FF0DB1B3
S214000A700023236438BD00BF00000E4038B5C0F325
S214000A800323013B092B11D8DFE803F005271010DC
S214000A902B221D101511154DC0F3043405F14245E7
S214000AA005F5801504EBC5008000016038BD104DCB
S214000AB0C0F30434F2E70F4DC0F304344FF4803033
S214000AC0FFF792FFEAE7C0F304340B4D1020F7E778
S214000AD0C0F30434094D0120F2E7094DC0F3043495
S214000AE0DCE7084DC0F30434D8E700BF00400E40F2
S214000AF050410E40F0400E40E8400E40E0400E40B0
S214000B00C0400E40B0400E40C0F30313013B092B1B
S214000B103FD8DFE803F0050B0F193E3E1F232C35A8
S214000B201D4BD3F80001C0F3042070471A4BD3F8CE
S214000B301401F8E7184BD3F80031C3F30063013310
S214000B400120984001387047134BD3F80C01C0F3CE
S214000B5008207047104BD3F80801F8E70F4B98426F
S214000B6017D10D4BD3F8203103F00F03E8E70C4BF9
S214000B7098420ED1084BD3F8283103F00303DFE781
S214000B80084B984205D1044BD3F8300100F00F0013
S214000B9070470020704700BF00400E4080061600D9
S214000BA090071A00A009140000F00F00013807286B
S214000BB04BD8DFE800F00412214A31354A3D294B74
S214000BC0D3F8940000F00700032849D004283ED04C
S214000BD002280CBF042005207047224BD3F8800063
S214000BE000F0070002283BD0042834D0012808BFB4
S214000BF0032018BF012070471A4BD3F8843003F047
S214000C000703013B032B03D8DFE803F00421232569
S214000C100120704703207047124BD3F88800DFE7A7
S214000C20104B1B6F13F0010F0CBF072009207047F5
S214000C300C4BD3F85C3103F03003202B0DD0302B57
S214000C400DD0102B08BF0720D3E7002070470220E6
S214000C507047062070470A20704704207047082017
S214000C60704700BF00400E4008B50146FFF79CFFE6
S214000C701A4B994211D01A4B994212D0194B9942ED
S214000C8004D1194BD3F8800000F007000138032880
S214000C9021D8DFE800F00A0E1612134BD3F88400B2
S214000CA0F2E7114BD3F88800EEE7BDE808401DF0E8
S214000CB0E2BABDE80840FFF78BBCBDE808401DF06F
S214000CC0DDBAFFF717FC084BD3F80031C3F3006317
S214000CD00133D84008BD0020FCE700BF0300200019
S214000CE00500240002001E0000400E4000F47813A9
S214000CF0B3F5A01F10B5044654D01ED8B3F5202F68
S214000D006CD009D8B3F5003F41D0B3F5802F33D06F
S214000D10002B63D0002010BDB3F5602F57D0B3F57D
S214000D20801F6CD0B3F5402FF4D1FFF7E3FB3F4BA9
S214000D30D3F81431C3F3042325E0B3F5001F3BD0EA
S214000D400FD8B3F5D01F39D0B3F5F01F25D0B3F5C3
S214000D50B01FDFD13648FFF787FF344BD3F820317A
S214000D6026E0B3F5481F3DD0B3F5781F54D0B3F551
S214000D70101FCFD12F4811E0FFF7BCFB2B4BD3F849
S214000D800C31C3F308230133B0FBF3F0C3E7FFF7DE
S214000D90B1FB264BD3F80831F3E72548BDE81040F1
S214000DA0FFF762BF2348FFF75FFF204BD3F83031D1
S214000DB003F00F03D840AEE71F48EFE71E48FFF7E3
S214000DC053FF1A4BD3F8283103F00303F2E71B480E
S214000DD0FFF7EAFE072812D009289BD1BDE810408D
S214000DE0FFF788BB1648FFF7DFFE072807D008285E
S214000DF008D004288ED1BDE81040FFF7B1BB114BD8
S214000E00186888E7FFF776FB084BD3F80031C3F382
S214000E10042303FB00007EE7FFF76CFB0146204639
S214000E201DF062FAB1FBF0F075E700BF00400E401F
S214000E3002001E00050024000300200006000E002D
S214000E40B8003200CC100020014B1880704700BF5D
S214000E50CC13002010B5042813D8DFE800F04703B1
S214000E602F132100294AC1F30801D2F86838002B55
S214000E70FBD1274A136A23F4FF7323F001030B43C5
S214000E80136210BD214A01F07F01D2F86038002BB2
S214000E90FBD11F4A136923F07F030B431361F0E76E
S214000EA01A4A01F07F01D2F86438002BFBD1184AA9
S214000EB0936923F07F030B439361E2E7144AD2F869
S214000EC09030536A23F0300343F010035362146BE0
S214000ED0104BC1F3C31003300F2803EA040328BFE6
S214000EE00F200B4343EA00731363CAE74F29074AF0
S214000EF028BF4F21D2F87438002BFBD1044A936BDD
S214000F0023F07F030B439363BBE700BF0020C84377
S214000F1000400E4000F8FF0F104A536A13F0300FDF
S214000F2018D0202913D0302914D000290C4B08BF24
S214000F304FF44003D2F8901033EA0101FAD15B0275
S214000F4046BFD2F8A000C0F38020012070474FF4BF
S214000F500003EFE74FF44003ECE700BF00400E400D
S214000F60FF03E10702280AD129B1064B4FF480603F
S214000F70C3F8A800596612B10220FFF7CDBF0120C2
S214000F80704700BF00400E400428F8B546D82F4BE7
S214000F9013F800C02E4B1D5C2E4B33F810702E4BF2
S214000FA033F810402D4B00293ED0022837D15C6A1A
S214000FB014F0300F33D15C6AE40705D55E6A26F07C
S214000FC0300646F010065E62254C244B25441F660C
S214000FD0AD002B68002BFCD002B36444A400236849
S214000FE0002BFCD0022819D1C1B11C4D696A11F042
S214000FF0010116D001222021FFF7B4FFD5F89C602E
S214001000012200210220FFF7BFFFC6F30A010220DB
S214001010FFF720FF2F662368002BFCD0F8BD0021C9
S214001020D2E7FFF779FFE9E701211C66A940D3F86C
S21400103090000842FBD1002AF0D00123074903FAAA
S2140010400CF3D1F890201A42FBD1E7E73B4C0200A4
S214001050364C02002C4C0200224C020000400E408F
S2140010608004F21008B5024698B901221146FFF72F
S2140010708BFFFFF7E1FC0D4B04225A67FFF73AFAA5
S214001080FFF790FCFFF75AFABDE808400021FFF78B
S214001090E5BC012807D10146FFF776FFFFF7CCFC39
S2140010A0024B0322E9E7FFF7C7FCE7E700400E40E4
S2140010B008B50C48FFF776FC012211460220FFF720
S2140010C063FFFFF7B9FC084B02225A67FFF712FAD4
S2140010D0FFF768FCFFF732FABDE808400021FFF78B
S2140010E0BDBC00BF0148E80100400E4010B50446F4
S2140010F01120FFF759FD002101220220FFF744FFCF
S2140011001B4A217C536A23F00103022908BF43F0DF
S21400111001035362174B2178C3F8A014936AE17A4F
S21400112023F007030B439362A188637A43EAC12343
S214001130D362136BA07A217A03F07F630343E088BF
S21400114043EAC02343EAC11303310F2928BF0F2106
S21400115043EA01731363A37B617B1B0143EA0133FC
S214001160E17B0B43217B43EA0143536310BD00BF81
S21400117000400E400000C843034B5868C0F3080008
S214001180003818BF0120704700ED00E01848194BE2
S214001190C26C1B88C2F303222833013202EB8201A1
S2140011A003EB5303B3FBF1F3C16C013B072B28BFE2
S2140011B0072321F0EE6141EA036343F48013C3641E
S2140011C00D4BB3F90030002B10DB2833510801EB30
S2140011D0420203EB5303B3FBF2F3026D072B28BF67
S2140011E0072322F0700242EA03130365704700BF2C
S2140011F000300E40CC540020C854002010B50C46D9
S21400120003283ED8DFE800F0022735391E4BD3F816
S214001210F031C3F3031003F00F020A2101FB002292
S214001220C3F30330C3F3032301FB00339B1A1749B0
S214001230581E884225D80131B1FBF3F3642161437F
S214001240A1F53531A1F5247103FB021101EB530121
S214001250B1FBF3F010BD0C4BD3F8F031C3F30350E1
S214001260C3F303420A2101FB0022180FC3F30363F2
S214001270DAE7054BD3F8F431CBE7034BD3F8F43178
S214001280ECE72046E6E700BF0081E00F7FB50100EF
S214001290084A1378013B012B0AD807490B6C03F068
S2140012A00303012B02D1CB6FDB03FCD503231370A2
S2140012B0704700BFAF58002000300E40054A064B6E
S2140012C0D16C1960D36C23F47F4343F4EE43D364AC
S2140012D0FFF75CBF00300E40A439002038B5164B2F
S2140012E0164DD3F8804145F60E02C3F880212A68D1
S2140012F022F0AA02D205D20D1A66114B1B78032BD8
S21400130004F0010412D0042B12D0022B02D10020CC
S214001310FFF7A8FE2B68DB075EBF074B02221A66A4
S2140013201CB1054B0022C3F8802138BD0120EFE731
S214001330FFF7BEFEEEE700BF00400E40A0390020DB
S214001340AE58002008B5054BD3F89020044B11206A
S2140013501A60FFF729FC034B187008BD00400E40CA
S214001360A0390020AE58002010B5044608B1FFF79B
S214001370E9FF124A136943F004031361FFF79EFF67
S214001380FFF786FF1DF0DAF81DF0D9F80C4B0D4A72
S214001390C3F8242430BF1DF0D3F802F001F90A4B3D
S2140013A01A680A4BDA64FFF7F1FE1CB9BDE8104074
S2140013B0FFF7C4B8BDE81040FFF790BF00ED00E0AF
S2140013C000A000400000FFFFA439002000300E40BF
S2140013D010B5044608B1FFF7B5FF184BD3F88021C7
S2140013E045F60E01D20748BF0022C3F880114FF41D
S2140013F02071196648BFC3F88021114A136943F06B
S21400140004031361FFF75AFFFFF742FF0D4B0E4A26
S214001410C3F824241DF092F830BF02F0C1F80B4B3D
S2140014201A680B4BDA64FFF7B1FE1CB9BDE8104032
S214001430FFF784B8BDE81040FFF750BF00400E40ED
S21400144000ED00E000A000400000FFFFA4390020EF
S21400145000300E400A4903798A6922F03F0213439E
S214001460027843EA8203427843EA4203827843EAF8
S214001470C203C278012A08BF43F001038B6170479C
S21400148000300E401A4B4AF6E85210B5596B5A63B4
S2140014909A6FD407FCD41B6C13F0030306D0154ACE
S2140014A001249842C2F8B44A0AD110BD18B9114BAB
S2140014B0C3F8B40AF9E7012802BF0F4B02221A70DC
S2140014C00B4B9A6FD207FCD41A6C22F0030202432D
S2140014D01A649A6F12F00102FBD10038054C18BF4F
S2140014E001200129C4F8B40A08BF5A63DDE700BF2B
S2140014F000300E400000C643AF580020A0F5E16360
S214001500B3F5966F2DE9F04102D90020BDE8F081D1
S214001510574C584BD4F81872B0F5E16F1CD0DD6C00
S214001520C5F301753C0E2E02C7F307474FF4966CC1
S2140015304FF4E16E01233343B3F5007F4C4E59D090
S21400154017D8B3F5807F52D040F20118434545D0F6
S214001550CBB9D6F81C3218E0DD6CC5F30175C7F3BD
S21400156007242E02FFB24FF4167C4FF4966E00232B
S214001570E1E7B3F5407F40D040F20138434533D031
S214001580D6F8283201E0D6F82432C3F30726DBB2B9
S214001590A4EB0708A0EB0E0E0EFB08F8B8FBFCF851
S2140015A04744A742B1D8F41A0EFB04F4B4FBFCF48B
S2140015B01C44B442A9D872B12E4AD36DB0F5E16688
S2140015C023F4FE4318BF012623F0020343EA460332
S2140015D043EA0723D36599B9012097E7D6F8243262
S2140015E01E0EC3F30743D3E7D6F82832F8E7D6F83B
S2140015F01C32F5E7D6F82032C7E7D6F82032EFE7F8
S2140016001B4BD3F80021D2B2032A07D8B0F5E16FFE
S214001610D3F82C320AD0C3F3072308E0022DD3F800
S214001620303220D0032D21D0012DF4D0DBB21B03A5
S21400163013F4702F7FF469AF0E49CA6E22F470421D
S2140016401343CB664B6E23F4FF7323F00103B0F510
S214001650E16F18BF43F00103E72C28BFE72443EAF5
S21400166044034B66B8E7C3F30743E0E71B0EDEE729
S2140016700081E00F00300E40184B1A6FD96C11F045
S214001680010F02F0060213D092B1132821D91438A4
S21400169013288CBF102308231048013BC26C190383
S2140016A022F47F4241EA03231343C364FFF76EBD6F
S2140016B0D96C01F00101114304D1092809D90A386F
S2140016C00928E6E7DB6C13F00103E5D01AB92728F2
S2140016D0DFE70423E0E70023DEE700BF00300E402C
S2140016E0064A074BD3F88039136F23F007030343EA
S2140016F01367044B1888FFF7BFBF00BF00300E40CB
S2140017000000C643CA5400204E4B37B502229A63E7
S2140017109B6B03F00F039342044603D00025284634
S21400172003B030BD484BD3F81C32013312D0474BC0
S214001730D96B9A6B1160596C1A6C1160D96C9A6CE3
S2140017401160596D1A6D1160D96D9A6D11605A6EDF
S2140017501B6E1A60E288A188B4F90C004A2A65D983
S214001760B2F5FA7F64D340F6C3139A428CBF4FF0AB
S21400177040524FF00052334DEB6C23F0405323F0B1
S21400178001030028A8BF43F001031343EB64304B6A
S2140017901980EB6E43F08073EB662E4BD3F880090E
S2140017A000B10420FFF79CFF2B6E23F0C0432B668E
S2140017B0EB6C43F0060301A8EB6400F0ABFA9DF86F
S2140017C00500012811D19DF80430022B0DD82249BE
S2140017D00B7853B96B6C214A43F001036B642B6E94
S2140017E01A401F4B13432B6608701E4B2189198025
S2140017F01D4BB4F90C20A0881A80FFF73DFFA37B91
S214001800CBB1012B1BD0012260881146FFF776FE74
S2140018100546002882D0A37A0E4A003B18BF012353
S214001820C2F894376078FFF72DFE78E70022A2E72B
S2140018304FF080529FE7034B0C4A9A65E3E7014B53
S2140018400B4AFAE700300E400081E00F0080E00F00
S214001850CA5400200000C643AF580020000F0EF008
S214001860B4C0400BCC540020C8540020774020570A
S214001870372110B7F8B506788768416804463046C1
S214001880FFF7BCFC394605463046FFF7B7FC024674
S214001890D6B9237B617B9B0043EAC103A17B0B4344
S2140018A00A21B5FBF1F043EA005301FB105543EA69
S2140018B00543B2FBF1F043EA003301FB102243EA92
S2140018C00222024BC3F89020F8BD00BF00300E4045
S2140018D00328054B94BF0130002003449B00186882
S2140018E0003818BF012070472080F1101F4A10B53D
S2140018F0D2F8903168B9012B33D14AF6E851C2F8D4
S21400190090111A49D1F8642142F07402C1F864219A
S2140019100EE0012B06BF4AF6E851C2F890110023EC
S214001920022820D1D2F8641121F07401C2F86411A3
S2140019300E4A0F4CD2F89C1141F00801C2F89C11D7
S214001940E16B21F4406141EA8021E163D2F89C1109
S21400195021F00801C2F89C1113B10023C2F890319F
S21400196010BD0346CDE70220CBE700BF00300E4097
S21400197000400E40144A1548D2F8B030C3F307436F
S21400198007EE103AD2F80431DBB207EE903AB8EE22
S214001990E76ADFED0F7AC6EE276ADFED0E7A76EE9F
S2140019A0A76A026A016AD2B2C9B28A42F9D19B1A00
S2140019B007EE903AF8EEE77AB8EEC77A07EEA67A20
S2140019C017EE100A704700BF0081E00F00300E408F
S2140019D00000C842A8C68B3E00EB4000F8B50D4696
S2140019E01F46040116463AB1154801238B40204491
S2140019F0C7B100F1C0600360072D4FF00F0114D887
S214001A00AB00104806FA03F2994020441CF09DFDF6
S214001A103EB90B4A0123AB40224477B102F1C062C3
S214001A201360F8BD00F18060E5E7A5F108039B00B0
S214001A30054806FA03F29940E7E702F18062EFE70D
S214001A400CA0004004A0004008A00040044B41F653
S214001A5071321A649A6822F001029A60704700BFD9
S214001A6000000E40034B9A6822F001029A600022A2
S214001A701A64704700000E40094A0A4BD969C90724
S214001A8005D512B96FF002007047013AF6E7002A52
S214001A90F8D001221861DA60D86940F380007047F8
S214001AA08096980000000E4070B509B9002070BD01
S214001AB00E4A0023082550F8234094610C4CD5604C
S214001AC00133D669F60705D514B96FF00200EEE7C4
S214001AD0013CF6E7002CF8D0D469A40702D499425A
S214001AE0E9D1E3E76FF00100E1E700BF00000E4038
S214001AF080969800224B2DE9F0470D4641F671314D
S214001B001E6C1964996841F001018146B6B299606D
S214001B109708A8464FF0000ABA450ED30020D9F819
S214001B2000202B689A420ED04846FFF7A5FF50B912
S214001B3001212846FFF7B8FF05E009EB8A04204696
S214001B40FFF79AFF48B10E4B9A6822F001029A609E
S214001B500EB100221A64BDE8F087C4F30A01C1F58D
S214001B6000618908A7EB0A03994228BF1946404638
S214001B70FFF79AFF0028D2D18A4408EB8108CBE70A
S214001B8000000E40214B41F671311A6C19649968B9
S214001B9041F00101996001211861D960D9694907AE
S214001BA092B209D5996821F0010199600AB1002224
S214001BB01A644FF0FF3070470221D9601449D86983
S214001BC0C00700D569B9D86910F002000BD0996833
S214001BD021F0010199600AB100221A646FF0010039
S214001BE070470139EBE741B9986820F0010098602A
S214001BF002B119646FF002007047996821F0010184
S214001C0099600AB9002070471864FBE700000E4090
S214001C1080969800014B01229A60704700500E4053
S214001C20194BF0B500215D68184C194E194F08463F
S214001C30D6F8E8C1626823681CF0040F0BD1B3F530
S214001C40006F06D01DD8B3F5007F02D0B3F5806FC5
S214001C5001D142F48072D7F888C01CF4807F18BF88
S214001C6022F01C022B4202D02A4208BF1843013140
S214001C70092904F10804DBD1C30348BF20F01C0087
S214001C80F0BDB3F5803FE3E700500E40404C020045
S214001C900040E00F00300E408B784A789B0143EA04
S214001CA082030A781343CA7843EA02130A7943EA9E
S214001CB0C2234A7943EA02338A79043043EA42432C
S214001CC00001014A1350704700200440014B186081
S214001CD0704700BF00008442437882789B0043EA46
S214001CE0021302781343C27843EA4213027943EAA6
S214001CF00223427943EA0233827943EAC233C27945
S214001D0043EA0243027A43EA4243014A13607047B9
S214001D10002004400D4AD2F8E430D2F8E0109B00D0
S214001D2003F03C03C1F381110B438370D2F8E0301B
S214001D3003F03F034370D2F8E830D2F8EC2003F00B
S214001D40F003C2F3031213430370704700FF0FE063
S214001D50024BD3F8FC00000E704700BF0081E00F76
S214001D60044BD3F8E4301B0E0A3303F01F030120A4
S214001D70984070470081E00F70B5054616461C4631
S214001D8019B91448FEF7B2FF0146402C1BD003D801
S214001D90DCB1202C1BD070BD602CFCD1042303FBCF
S214001DA006F2530803EB4113B3FBF2F30A4A203B57
S214001DB002EAC3032A6822F060022A602A681443F3
S214001DC02C606B61E7E70623E9E71023E7E70823C3
S214001DD0E5E700BF40410500F8FF7F0040F6AA6334
S214001DE0C36041F205020023036042600B4A836031
S214001DF04361C36482640A4A03669042436783670A
S214001E00C36705D002F58062904203D083657047B1
S214001E100365FBE703658365C3657047F9FF01004B
S214001E200000014038B504461FF036FF0FCC044DC5
S214001E300FC594E80F0085E80F00002038BD00BFEE
S214001E40A839002047F6FF739A42F0B572D00629EB
S214001E5072D83A4B5B5C022B6ED8394D05EBC30447
S214001E60DF00A17815F83330012938BF0121012B96
S214001E7013D1E0780025401AA84202D80844C0B220
S214001E80F0BD431BA0EB5303666836F91360964219
S214001E90CCBF03F1FF301D46EEE760680028EFD0A8
S214001EA0B0F90040944204DBB0F902409442B8BF57
S214001EB014468388FF2B04BFB0F90620B0F908C08B
S214001EC03D440FBF01260026C8224FF0280C131BE6
S214001ED093FBFCF333446E781BB29E4201DD002B6D
S214001EE001DA731E1BB201339BB24FF47A7C071DD6
S214001EF05D1E2DB24FEAC50E00EBC5059E42EA8870
S214001F00AD6814FB025222EAE27202F15C02B2FBF6
S214001F10FCF205DD37F83350954203F10103E7D2B2
S214001F2000EB0E039888904228BF1046884238BFC0
S214001F300846A4E7FF20A3E70020A1E7884C02009C
S214001F40A83900200629F0B561D8324B595C022921
S214001F505DD8314B13F83100012816D103EBC103CD
S214001F609C78D8785B68012C214638BF01219042C6
S214001F7094BFC1EB0001C1EB0201CAB2001B824252
S214001F80C8BF002233F91200F0BD002A3DD003EB93
S214001F90C103596800293AD09878904202D3B1F923
S214001FA00200F1E7DC78B1F900009442ECD95C78E5
S214001FB08B88A3F1FF06013C734201F10405E4B2ED
S214001FC0734101F10C07DEB2B44216D805EBC30329
S214001FD04FF47A75B3F902405B686A43D21A04EB91
S214001FE0D47302EB630292FBF4F29042CCDBB1F9BD
S214001FF002009042C8DC10B2C6E737F833C09445FA
S21400200003F10106E2D33346DDE70448BCE70448A3
S214002010BAE700BF884C0200A83900200CFEFFFF7C
S2140020200080FFFF08B50448FFF7FCFEBDE8084047
S21400203001201FF056BE00BF904C02007FB5142250
S214002040002101A81FF035F9044B029301A94FF0B7
S214002050FF301FF082FE07B05DF804FB006A180030
S214002060024B03480122C3F8042670470010C843F9
S21400207000000F40054B984201BF03F16E7303F555
S21400208088330022C3F80426704700BF00000F40C4
S21400209010B504462369DB07FCD404F180001CF06D
S2140020A080F9014B236510BD510545012DE9F0432C
S2140020B0064689B0174698460C4600294DD1FFF7CC
S2140020C0CFFF0146044630461CF0AFFA4FF0010938
S2140020D096F86C5006F15C01C5F10F06C5F10E03CB
S2140020E0F6B22A460DF1010001358DF800301FF0DA
S2140020F0A8F8324600210DEB05001FF0DAF8C6F10D
S214002100100001233246002168448DF80F301FF07E
S214002110D0F81CF0EEF804F1800605466946304615
S2140021201CF03FF90E4B23652369DB07FCD404A99A
S21400213030461CF053F928461CF0DFF8424604A946
S21400214038461FF07EF8B9F1000F02D02046FFF7A0
S21400215091FF002009B0BDE8F0834FF00009B7E713
S214002160055101002DE9F04F89B00546DDF848908D
S21400217016461F460C4639BBFFF772FF014604465B
S21400218028461CF052FA4FF0010B6B6C33446B641C
S2140021901CF0AFF88246D6B950461CF0AEF8BBF13C
S2140021A0000F0ED01CF0A5F805F14C01064604F110
S2140021B084001CF013F930461CF09FF82046FFF709
S2140021C059FF09B0BDE8F08F4FF0000BDDE72B7923
S2140021D0102EB04628BF4FF01008012B0DD110224C
S2140021E0002168461FF065F83946424668461FF0EB
S2140021F028F869462046FFF74BFF394604F18C0065
S2140022001CF0CFF8124B2365012363652369DB07B7
S214002210FCD404A904F180001CF0E0F804A94246AE
S21400222048461FF00EF8297961B9102268461FF05B
S21400223040F84946424668461FF003F8694620467D
S214002240FFF726FFC1444744A6EB0806A3E700BFF6
S2140022504805590370B5048804F4E043B3F5005FFD
S21400226005461ED1C4F30223042B1AD181F0AA63BB
S21400227083F4807333F47E13204821F47E1618D03E
S21400228081F0AA6383F4007333F47E1311D0864280
S21400229030D1B4F5105F0CBF6FF086006FF085008C
S2140022A070BDB4F5105F25D1144B21F47E11994210
S2140022B0F1E786424FEA1143C1F305411AD1B4F55E
S2140022C0105F17D104390C2911D813F001000ED174
S2140022D0073A062A0BD86B88C02B0BD0B3F5807F45
S2140022E0DED0802B0CBF00206FF08600D8E76FF0A2
S2140022F08600D5E76FF08500D2E700BF00014005F5
S2140023002DE9F04FA7B0DDE93475DDF8D880DDF8AB
S214002310EC90089206461C468A4629B96FF086025B
S214002320104627B0BDE8F08F0028F7D0309B002B72
S214002330F4D0329B13B9339B002BEFD1002F7DD105
S214002340002DEBD1389B002BE8D0B9F1000FE5D07B
S2140023503A9B002BE2D0399B002BDFD0338803F466
S214002360E042B2F5005F74D1C3F30222042A70D1B2
S21400237084F0AA6383F4807333F47E1306D084F06B
S214002380AA6383F4007333F47E136BD1C4F305435E
S214002390319AC9F80030214630460993FFF75AFFB4
S2140023A002460028BCD17288089BB3EBD20F4FEAD6
S2140023B0D20BB3D3379B9D425FD83A9A099B934280
S2140023C05BD8474508D27B19984505D239462A4638
S2140023D040461EF054FF4746702200210AA81EF011
S2140023E068FF5A4651460DF12D00CDF850B01EF04C
S2140023F028FF234B24F47E149C423BD13388B3F54C
S214002400105F37D1D9F800300693399B0397CDE992
S2140024100483339B0293329B0193319B00932A469D
S214002420309B01210AA81CF01BFA0246E0B9389B33
S2140024301D6070210AA81CF00BFA71E7002D81D0F0
S214002440B8F1000F3FF46AAF379B002B7FF47AAFEA
S21400245064E742F20402934204D184F0052383F435
S214002460801390E7002393E7389900230B60C9F8A0
S2140024700030DEE76FF08502DBE76FF089024FE79A
S214002480000140052DE9F04FABB0DDE938A4DDE9E9
S2140024903B658946099298460746002800F0A280C8
S2140024A0002900F09F80349B002B00F09B80369B19
S2140024B01BB9379B002B40F09580BAF1000F02D174
S2140024C0002C40F08F801DB93D9B002B40F08A8089
S2140024D03E9B002B00F086803A9B002B00F082800B
S2140024E0359A41463846FFF7B5FE0246002866D1C3
S2140024F07A88099BB3EBD20F4FEAD20B72D33D9B7F
S2140025009C4272D8AA4509D20AEB0402954205D22B
S2140025105146224628461EF0B2FEAA4670220021E8
S2140025200EA81EF0C6FE5A4649460DF13D00CDF8EF
S21400253060B01EF086FE2E4A28F47E1800219045D4
S214002540CDE90A11CDE90C1149D13A88B2F5105FF0
S21400255045D1379B0293369B01930AAF359B009378
S2140025602246CDE90457349B0696CDF80CA00EA85B
S2140025701CF076F90246C8B93A9B384603EB060CBF
S21400258090469C451FD11EB1314638461CF060F976
S214002590B8F1000F20D03E9A002313601CB12146EC
S2140025A028461CF055F96FF0940204E01EB131463F
S2140025B038461CF04DF970210EA81CF049F910465B
S2140025C02BB0BDE8F08F10F8011B13F801EB81EA81
S2140025D00E0148EA0108D4E73E9B1C60EBE76FF06B
S2140025E08502E8E76FF08602E9E76FF08902E6E722
S2140025F0000140052DE9F04F8FB09846DDF86CA03D
S214002600049093460023B8F1000F16D0D8F8004087
S2140026101029CDE90633CDE908330CBF0823102373
S214002620029300255D450AD3B8F1000F01D0C8F823
S214002630004000200FB0BDE8F08F4446E8E75CB1EC
S214002640199B1A9A1B5D525D013453400AF80530F7
S21400265004F00F040135E5E7FFF702FD4FF44043B1
S2140026604460036006461BF044FE029A049907463F
S21400267030461BF0E8FE06F18403184618990193CD
S2140026801BF08FFE3846ABEB05071BF036FE27F037
S2140026900F0706F1A0032F440593AAF11009BD42C7
S2140026A034D11A9B3B440AAD03F1100C18685968E4
S2140026B02A4603C2083363451546F7D10F2F0ED9B5
S2140026C00AEB070306AD103B0DF1280C2A4603CA99
S2140026D0624518605960154603F10803F6D106F105
S2140026E0800357440AEB0B0903934F4536D11BF082
S2140026F000FE1899054601981BF070FE28461BF050
S214002700FCFD3046FFF7B6FC5D468BE71BF0F1FD9F
S214002710224B039033653369DA07FCD41A9B05987D
S21400272059191BF03EFE0F2D0ED90DF1180C09EBB2
S21400273005020DF1280E634603CB73451060516009
S2140027409C4602F10802F6D106A906F180001BF0AD
S21400275045FE03981BF0D1FD1035A0E774B91BF0B9
S214002760C8FD0E4B336505463369DB07FCD403987A
S21400277019991BF033FE28461BF0BFFD04F1380301
S2140027800DEB0302199B12F8102C1B5D013453400D
S21400279007F8013B04F00F04A7E700BF4805030154
S2140027A02DE9F74FDDF848A0DDE90E74DDE9106885
S2140027B083461D46894621B96FF0860003B0BDE802
S2140027C0F08F002AF8D00FB9002CF5D116B9B8F161
S2140027D0000FF1D1BAF1000FEED02E4B9D4215D06E
S2140027E00BD82D4B25F4807199420FD003F58063EA
S2140027F09D420BD06FF08500E0E7284B9D4205D048
S21400280025F40071A3F580739942F2E7BBF8003017
S214002810B3F5105FEED1BBF80230B2EBD30FE9D3BD
S214002820802B02D0B3F5807FE4D124B3B7420AD21E
S2140028303B199E4207D24445BED83946224630460A
S2140028401EF01DFD3746164BBBF802B09D424FEA00
S214002850DB0BCFD14445AFD814F00F05ACD17319BC
S214002860009301227B19594648461CF032F830B9CD
S2140028701035AC42F3D8CAF8004000209EE7424626
S214002880002130461EF015FD0023CAF800306FF018
S214002890920093E70010C004004040040012C004F9
S2140028A0004440042DE9F04F91B0DDE91A4ADDE915
S2140028B01C56DDF8789007469B46884629B96FF087
S2140028C08608404611B0BDE8F08F002AF7D014B94C
S2140028D0BAF1000FF3D10DB9002EF0D1B9F1000F07
S2140028E0EDD0574B9B4515D00BD8564B2BF480712B
S2140028F099420FD003F580639B450BD06FF0850897
S214002900DFE7514B9B4505D02BF40071A3F5807390
S2140029109942F2E73B88B3F5105FEFD17B88B2EBC4
S214002920D30FEBD3802B02D0B3F5807FE6D1BAF17C
S214002930000F04D1C9F800A04FF00008C1E7AC4270
S2140029400BD204EB0A039D4207D2B245B7D8214604
S214002950524628461EF093FC2C46394B7F889B45F2
S2140029604FEAD70758D003F540739B4521D0374B25
S2140029709B45C3D1B245A2D81AF00F0B9FD1404653
S2140029803B4608AA39461BF0DEFF8046002898D151
S21400299005EB0B030093002204EB0B03394608A853
S2140029A01BF097FF804670BB0BF1100BDA45EFD893
S2140029B0C0E7AAF10D0AB2453FD801238DF81030C2
S2140029C00DF11102234604F10C0153F8040B42F8F2
S2140029D0040B8B42F9D11B7813704FF48073ADF85B
S2140029E01E300D3404ABCDE900334046CDE9024538
S2140029F0002352463946FFF7FDFDC9F800A0804681
S214002A0000283FF45EAF3246002128461EF051FCF7
S214002A100023C9F8003054E7AAF1100AB2453FF681
S214002A204EAF04AA04F1100C20686168134603C375
S214002A30083464451A46F7D1D4E76FF0890840E7B2
S214002A400010C004004040040012C00400444004CB
S214002A507FB5094B6A4603F1100615461868596893
S214002A60144603C40833B3422246F7D12846FEF77D
S214002A704BFE002004B070BD484D020070B5184BE8
S214002A8086B001AA03F11006154618685968144660
S214002A9003C40833B3422246F7D11B882380114B68
S214002AA0D3F8B420120316D5A3F500434FF6FF72F1
S214002AB01B88934208BF4FF4B4730B48ADF80A3036
S214002AC0FDF754FD2846FEF711FB3220FEF7BCF951
S214002AD0002006B070BDD3F8B830C3F30803ECE7A7
S214002AE0584D02000081E00F00F0490210B50C4876
S214002AF00C4C6FF00403A02113F0800F03F10102C9
S214002B0007D12344222A83F800131346F4D1002069
S214002B1010BD03F00F03043B034419761346EBE79E
S214002B2000ED00E000E100E007B500F05FFF6A4658
S214002B3000F0C2FF18B1044852211BF067FFDDE920
S214002B40000103B05DF804FB6A4D020008B500F012
S214002B5081FE18B102487A211BF058FF002008BDFC
S214002B606A4D020008B500F04FF80E4A536A43F467
S214002B70E0235362EFF308830B4A043B4FF0CD315A
S214002B8093420BD2FDF7A0FE084B01221A61FFF715
S214002B90DDFFBDE808400648FFF744B943F80419CE
S214002BA0EEE700BF00ED00E00000002000300E4021
S214002BB0904C020007B504220DEB020100201FF026
S214002BC048F8042804D0054840F267111BF01EFFA1
S214002BD0019800F0E7F903B05DF804FB6A4D0200C7
S214002BE010B50A0A41400748C9B2082301F001049B
S214002BF0490804B14140013B13F0FF03F6D181EAD6
S214002C00020010BD2083B8ED10B5FFF709F80446A2
S214002C10FFF700F8E30721D401221046114600FA18
S214002C2001F3234002F101021AD0214B33F8113090
S214002C302049062B19D040F20722934212D14FF0BA
S214002C4000524FF20F00548884420BD110889842ED
S214002C5008D14CF23C335380088010BD0021E4E7D5
S214002C60112ADBD1134A138012E04FF000534FF2C3
S214002C700F025888904218D11B88B3F5406F28BFC2
S214002C804FF4C0630B804FF000534CF23C325A8036
S214002C90084B1A8840F201739A4201BF064A074B56
S214002CA0D2E90001C3E90001D7E74FF4C063E9E7C2
S214002CB0D04D0200CE54002090100020C8390020CD
S214002CC010B504461BF01CFB194B4AF6E8529A60F6
S214002CD05A639A6B02F00F02022A13D1154AD2F8F1
S214002CE0C820520742BF144A012111641B6C03F02E
S214002CF00303013B012B9FBF104B0022C3F8702C2F
S214002D00C3F8802E4FF000534FF20F021C805A80FB
S214002D10BFF35F8FBFF34F8F09490A4BCA6802F4AF
S214002D20E0621343CB60BFF34F8F00BFFDE700BFE9
S214002D3000300E4000400E40004008400000C643F1
S214002D4000ED00E00400FA056B4A6C4B2DE9F041FB
S214002D5055685D65516A996569496A4CD1F8000203
S214002D60D865D1F804121966916A5966D16A9966CF
S214002D70116BD966516B1967D26B586B5A67D3E9DA
S214002D800E1210F0040F18BF11465F4A1A65002095
S214002D909142D8645DD301F12000A04259D88869D9
S214002DA01864C5F30805CE695E64062D55D1574DE7
S214002DB0A84252D3564DA8424FD205884DF64260DF
S214002DC085424AD11868C3F890005868C3F8940042
S214002DD040F20170A242154605D22E68B6F1CD3FEC
S214002DE002F10402F6D00022C3E91E22C3E9202223
S214002DF0C3E92222641BDFF814C1424DDFF810E15C
S214002E009C648D422CD8D3E91EC7D3E92065D3E94C
S214002E1022414FF0000E013AD2B2FF2A3BD1BEF15A
S214002E20000F05D0C3E91EC7C3E92065C3E92241E8
S214002E30B3F85430C3F30803DA1E0F2A52D8DFE87B
S214002E4002F03458414451515151514E5151515153
S214002E5051380021C3E910112B494FF42060B9E71F
S214002E6055F8044D6445CCD37445CAD2E607C8D598
S214002E70284F002657F8048FA045C2D00136062EEC
S214002E80F8D132B1013AD2B202F11E0643F826401A
S214002E90B7E70522F8E7E0464FF0010EBC46374696
S214002EA02E4625460C464146B5E740F60120BDE8CD
S214002EB0F081194BDB6913F0020F40F2025318BF82
S214002EC01846F4E740F60320F1E740F2017240F6B8
S214002ED00423B0F5206F14BF10461846E7E740F607
S214002EE00520E4E7013B40F60722302B98BF10464A
S214002EF0DDE740F60220DAE700ED00E000100020F3
S214002F0000E100E00010002000000020C8000000E3
S214002F10C04B0200741000200020054000F00CB8E2
S214002F2000F00AB800F008B800F006B800F004B8E0
S214002F3000F002B800F000B872B61EF0080F09D014
S214002F401EF0040F0DD0DFF850E0AEE8FF1F6FF064
S214002F5002000CE0DFF840E0AEE8FF1F6FF00E0066
S214002F6005E0DFF834E0AEE8FF1F6FF006006946C4
S214002F70EFF309828EE8070086460848084C854528
S214002F8001D3A54501D384F30888FFF7DDFE84F35B
S214002F900888FFF795FE0000001000204000002083
S214002FA00010002083B24BF6EF62002B08BF1346DA
S214002FB0044A000C13804FF6CE2308BF1846024B77
S214002FC018807047D0130020CE1300200B4BB3F9A7
S214002FD000201888002AB8BF80F0620042001A80DD
S214002FE0074AB2F9001013880029BCBF83F4805347
S214002FF083F00B035900118058407047D01300200F
S214003000CE13002008B500F043FF60B10A4B03441E
S214003010072B0DD8072B0BD8DFE803F00C060A08A1
S2140030200A0A0A04C12008BDC320FCE7C420FAE748
S214003030C520F8E7C220F6E7FF1FFF0F054B1A78FA
S2140030402AB95B78002B0CBF0320022070470120B2
S214003050704700BFB95800200329F8B598BF134B36
S214003060054698BF5C5C0E4688BF0024032805D83A
S214003070DFE800F002080B0E44F002040C4B1F6859
S2140030804FB9F8BD44F00804F8E744F02004F5E72B
S21400309044F08004F2E77B681A68144203D05B6849
S2140030A03146284698473F68EAE700BFF84D0200D9
S2140030B0FC39002038B5104D2B78ABB10F4C237877
S2140030C01BB11BF0DAFC0023237000201BF0D6FC9B
S2140030D00B4C50B100F082FA002320782B700121AF
S2140030E0FFF7BAFF0123237038BD064B01221A7082
S2140030F0054B22781A70F7E7B5580020B358002021
S214003100BB580020B6580020B758002010B51BF05A
S214003110F0F8064B1B7804461BB1BDE810401BF0C8
S214003120ECB8FFF7C7FF2046F7E700BFB25800200D
S214003130094A137830B101331370084B1B78012B02
S21400314003D87047013B13707047054B1B780BB9CB
S214003150FFF7B0BF704700BFB9580020BB5800202B
S214003160B658002070B5144E1BF0C3F833780546E9
S214003170ABB900F06FFB044620B128461BF0BDF843
S214003180204670BDAFF300800C481BF06BF800F0D3
S2140031903FFE0B4B1C6000F043FC0A4B186000F02F
S2140031A0C7F91BF06DFC084B1860012328463370E6
S2140031B000241BF0A2F8E3E7BC580020FC390020EE
S2140031C0D0390020F8390020D43900202DE9F84302
S2140031D0284A0138135C39B1274F39780133012961
S2140031E0135404D8BDE8F883013B1354FAE7FFF7FD
S2140031F025FF0128044635D8DFF888801BF079F8CB
S21400320098F80030054613B31C4E33781BB90122DC
S21400321032701B4A1370DFF8709099F8003023B1B3
S2140032201BF02BFC002389F8003028461BF065F8BD
S21400323001201BF023FC1BF05CF8337805461BB11D
S21400324000F0CCF900233370002388F800302846BD
S2140032501BF053F838788442C4D02146FFF7FCFEB2
S2140032603C70BFE70329F5D10228F3D100F002FA3B
S214003270F0E700BFB9580020BB580020B258002025
S214003280B6580020B5580020B358002038B51BF0BB
S21400329030F8094B1B78012B054604D81BF02DF897
S2140032A00024204638BD054B1C6800F0D5F90444C0
S2140032B028461BF022F8F4E7BB580020D03900203F
S2140032C038B5416004461BF014F82146054604480C
S2140032D01AF0CBFF2846BDE838401BF00EB800BFFA
S2140032E0FC390020054B1B68584300F57420044B3E
S2140032F000F23F20B0FBF3F0704700BFF839002023
S21400330040420F002DE9FF47EFF3108772B6AFF388
S21400331000801DF0C8FE002871D0714EDFF8E481F1
S214003320337823B10020FFF703FF00233370FFF745
S21400333085FE0446002869D0841EE4B2012C6CD9B0
S214003340FFF77CFE0128674CDFF8BC91054600F2CB
S2140033508E802078A84205D099F80030002B00F027
S214003360B2802570207800F061F999F8003013B12A
S2140033705D4B1B782370AFF3008007B962B6EFF39E
S214003380108772B6594B1A7852B100221A70564BF3
S21400339020781B78984203D101212170FFF75CFE4C
S2140033A0534800F091FA1DF08DFE05460028B7D16F
S2140033B0DFF8588198F80030A3B189F80000DFF8EC
S2140033C0409199F800301BB11BF057FB89F800506C
S2140033D000201BF053FB002879D000F0FFF80023F4
S2140033E088F80030337823B10020FFF7A1FE0023D1
S2140033F0337020780021FFF72FFE00232370AFF3F1
S214003400008007B962B604B0BDE8F0873378002BB9
S21400341096D0FFF78DFE347092E703A9002000F0E7
S214003420A1FA044600288BD1D8F80030039A9A42B5
S21400343005D80120FFF77CFE0123337080E72D4B73
S2140034401D6800F009F9039B05449D42F1D200F087
S21400345027F982000399264842F0020292B2CDE98B
S21400346000422346244A491B1BF00EFB68E7DFF8A0
S2140034709CA09AF80030CBB91BF0FCFA2078854265
S21400348003D099F80030D3B125709AF80030002B9D
S2140034907FF468AF194B1B7823B91BF0EDFA184B75
S2140034A001221A7001238AF800305BE720788542F3
S2140034B03FF458AF99F80030002B7FF452AF2946FE
S2140034C0FFF7CAFDE0E72946FFF7C6FD49E70120FA
S2140034D000F0ACF807B962B6EFF3108772B677E77C
S2140034E0B4580020BB580020B7580020B058002021
S2140034F0D8390020D03900200D310000B8580020FF
S214003500B3580020D4390020B6580020B558002003
S21400351010B51AF0EEFE054B00221C781A701AF051
S214003520ECFE00F095FB2043C0B210BDB158002061
S21400353008B5154B5A6A5A6AD3F8903003F004035C
S214003540002B124B14BF012200221A7005D04FF434
S2140035501670FFF7C7FE0E4B18600E4B1B68012057
S214003560C3F303239840C0F1010000EB80006430F1
S214003570FFF7B8FE084A136803441360024BD3F8FB
S2140035809020064B1A6008BD00400E40BE58002032
S2140035900C3A002000200440043A0020003A0020A4
S2140035A008B50B4B1B7893B1022000F003FC70B1FA
S2140035B000F008FA58B1002201210220FDF7E4FCD1
S2140035C01BF0A5FA034B1860034B01221A7008BDC6
S2140035D0BE580020083A0020BD58002038B50E4CD2
S2140035E00E4D23782BB92B781BB11BF090FA0C4BA1
S2140035F018601AF0A8FF2B786BB10A4AD2F8903000
S2140036001B07FBD51BF083FA054B1B68C01A064B3D
S21400361018600023237038BDBD580020BE58002017
S214003620083A002000400E400C3A002002280AD03B
S21400363003280BD001280CD1064A136923F0040393
S214003640136130BF70470020FDF78EBE0020FDF7E7
S214003650BFBE704700ED00E0044B1B680BB103EBE8
S214003660D303034A10681844704700BF0C3A002082
S214003670043A0020084B45F60E02D3F88011C3F832
S2140036808021064A126802F4A0721A66CA0744BF6E
S2140036900022C3F88021704700400E40003A002008
S2140036A0014B1878704700BFBE58002038B500F0B0
S2140036B01FFB094C094B1A6823680025C31A2AB158
S2140036C023B15169994203D3C91A5161206038BDAC
S2140036D055615B1A9268F2E7143A0020183A002007
S2140036E0C38870B504460D463BB9FFF7CFFD85424B
S2140036F0064602D21BF0B2F935460E4965610B68E4
S2140037008BB90C60A3600DE0AD1A9A686561184627
S2140037106AB113465A69AA42F6D930B18460521B80
S214003720A3605A6170BD0020F4E70C60F7E79C6068
S214003730A260F7E7183A002038B5134D2B685B698E
S21400374093B1124A146802201C4400F005FB204680
S21400375000F0D4FA0E492A6800230B70D088800740
S21400376009D501230B7038BD022000F0F5FA0220BF
S21400377000F018FBEEE79268002AF4D05069034484
S214003780012BEBD9EFE700BF183A0020143A0020CF
S214003790C058002070B516469DF814200271049A91
S2140037A00260C0E903360022BDF818308260044685
S2140037B00D46C380EEB900F09BFA2844A0619DB187
S2140037C02E461AF096FD0546FFF770FF3146204656
S2140037D0FFF786FF104B1B68A34201D1FFF7ACFF33
S2140037E028461AF08AFD02E0E36865617BB900208E
S2140037F070BD00F07DFA3044A061002DE0D1E36892
S2140038006561002BDDD0216820469847D9E72168FE
S21400381020469847EBE700BF183A00200C490B6893
S21400382000227BB183420AD183687AB193608368B1
S2140038301BB15A6941690A445A61002070471A460A
S2140038409B68EEE70028EFD0022070470B60EEE79B
S214003850183A002070B5154E1AF056FD3478054615
S214003860FCB9134B1C60134B1C60134B1C8000F000
S214003870FBF9012000F070FA00F0C4FA0F4B024684
S214003880186020B928461AF045FD232070BD23464F
S2140038900B4840F2E73105F03FFC0A4B1860012365
S2140038A0337028461AF036FD0020EFE7C158002096
S2140038B0183A0020143A0020D05400201C3A002069
S2140038C018FCFFFF103A002070B5044640B31AF00B
S2140038D010FD144E0546FFF7E9FE3068A04209D0F9
S2140038E02046FFF79BFF0446B0B128461AF005FDB8
S2140038F0204670BDFFF792FF04460028F5D13368D6
S2140039003BB9022000F036FA28461AF0F6FC0024EE
S214003910EEE7FFF711FFF7E73368002BF4D1F0E787
S2140039202224E5E7183A002038B50C460546A8B12B
S214003930A1B100230B701AF0E7FC094B1B680121AC
S21400394033B91AF0E7FC002038BD9D4204D121703F
S2140039502278002AF9D0F4E79B68F1E72220F3E703
S214003960183A0020F8B506460F461AF0CDFC134B61
S2140039701B680446002523B920461AF0CBFC1B2002
S21400398011E05A691544DA88B2420DD10C4E00F0A7
S214003990AFF93368C01AA8420AD3002320463B601A
S2140039A01AF0B8FC0020F8BDFF2EEFD09B68E2E7C7
S2140039B000F09EF933682B441B1AEFE7183A0020F4
S2140039C0143A002008B5074B187848B11BF09FF84A
S2140039D0054B1B689B69C01A02288CBF002001207B
S2140039E008BD00BFC0580020183A002070B51AF075
S2140039F08BFC064600F07CF9084B1D880446012027
S214003A00ADB200F0D7F918B100F072F901350446EE
S214003A1030461AF07FFC2046294670BDD054002060
S214003A20014B1868704700BF1C3A0020F8B50C4BD5
S214003A301B68834205460E460FD30A4B00241F68B8
S214003A4040F2E73021464FF47A720023E5FB070187
S214003A5005F062FB30602046F8BD2120FCE700BF81
S214003A60103A00201C3A0020014B1868704700BF2F
S214003A70103A00200F4B1A6810B59AB1531E4FF437
S214003A807A711342A0FB01010ED1B2FA82F2C2F1A2
S214003A901F04531CE040D24301FA03F3184321FAF3
S214003AA002F20243104610BD002305F035FB024625
S214003AB0F8E700BF1C3A002038B5154B8342154B7B
S214003AC08B41144621D3144B1A68F2B14FF47A7521
S214003AD0A0FB050305FB0131531E134211D1B2FAB8
S214003AE082F2C2F11F05531C01FA03F3D243E840E9
S214003AF021FA02F218431043E940C4E9000100200D
S214003B0038BD002305F008FBF7E72120F8E700BFE3
S214003B10EFA7C64B378941001C3A0020C2072DE9A3
S214003B20F84304460BD5474A138801339BB21380EB
S214003B30FFF7BCFD444B1B680BB1FFF7FDFDA30769
S214003B407DD51AF0E1FB0546FFF7B0FD4FF0000803
S214003B503D4F46463C680CB163698BB13B4B002237
S214003B60012E1A7003D118F0020F18BF1E70002C19
S214003B7061D0FFF7E1FD2846BDE8F8431AF0CABB5E
S214003B8023465A693AB91A792179914288BF1C4668
S214003B909B68002BF5D128461AF0BCFB2569DDB1E1
S214003BA000F0A6F8A269A0EB02084FEAE873A84561
S214003BB073F1000311DB23691344A361E368B4F8CF
S214003BC00680013613B12168204698471AF09CFB00
S214003BD00546FFF76BFDBDE7A8461AF095FB814644
S214003BE02046FFF71BFE48461AF094FB2369002B7D
S214003BF0E4D0A38BB5EB080533B1E28B13449BB23C
S214003C00B3F57A7F0FD2E3831AF07EFB294680460F
S214003C102046FFF765FDA36922691344A361404669
S214003C201AF078FBCAE7A3F57A73E383A369013B2E
S214003C30013DA361E8E7022000F09CF89BE7BDE8A1
S214003C40F88300BFD0540020183A0020BF58002048
S214003C5010B51AF059FB034B1C781AF05BFB204694
S214003C6010BD00BFBF58002010B51D4B86B01868A9
S214003C70596803AA03C2197AD3F809001170019093
S214003C80B3F80D201748DB7BADF8082001218DF82E
S214003C900A300024FCF7F2FE03A88DF80C408DF8DD
S214003CA01040FEF719F801A901208DF80440FDF731
S214003CB0F3FF0D4A536A23F4FF6323F007035362AE
S214003CC040F2FF73136201209460FDF7FFFF074B7D
S214003CD04FF00052C3F880211A6006B010BD00BF36
S214003CE0FC4D0200A00914000020044000E100E0A2
S214003CF0014B9868704700BF0020044010B504468A
S214003D001AF0F7FA124A9368516D9269520704D472
S214003D10CA1A032A01D899420DD1E21A022A98BF7C
S214003D20DC1C0B4BB4F1FF3F38BF013C5C655A6AA4
S214003D3042F004025A621AF0E0FA064A137833B1E7
S214003D4003490B6D43F002030B650023137010BD8F
S214003D5000200440021400208207054A00F00103F8
S214003D60516A48BF43F004030B435362704700BFD9
S214003D7000200440820700F0010309D5074A01210C
S214003D80117007490A6D22F0030243F004030A6526
S214003D9003494A6A22EA03034B6270470214002072
S214003DA000200440830742BF014B0422DA617047BB
S214003DB000200440064B01289B6904D0022805D148
S214003DC0C3F38000704703F001007047002070477F
S214003DD00020044010B51AF097FA094A9369044681
S214003DE0590703F0010003F0070348BF40F0020044
S214003DF01362FFF793FE2046BDE810401AF08ABA19
S214003E00002004400148FCF771BF00BFA009140061
S214003E100A4BD3F8883003F00703013B012B10B59B
S214003E200BD81AF066FA012104460220FFF7CEF9F5
S214003E302046BDE810401AF060BA10BD00400E40A3
S214003E401F282DE9F341054604D82C46204602B02B
S214003E50BDE8F0810B4E0C4FDFF8308000240023C5
S214003E60CDF8008038681A4619461DF058FD844281
S214003E70EBD2202CE9D056F8043BAB42E6D0013416
S214003E80EDE700BFE0500200C8100020FFFF0F0063
S214003E902DE9F04F644E654D3168286889B006F00C
S214003EA069FC0446002827D033689A69D3E90001E4
S214003EB01268904733689B6904A89B6898473368E4
S214003EC09B690220DB68984700243268059853688F
S214003ED0B3FBF0F3E7B2BB42916904F101044DD89D
S214003EE0CB680020984733689B695B6898473168C1
S214003EF0286806F03FFC0446DFF84C914C4FDFF88C
S214003F004C81DFF84CA10026F4B94A4B28689B5D2B
S214003F10002B00F08380D7F800B002AB03AA594606
S214003F2006F06AFE504507D070B9039B012B0BD0F4
S214003F302868594606F0A4FED9F8003028681A68A2
S214003F40594606F089FD04460136202E09F104097B
S214003F5007F1040708F10108D6D1374AB4FA84F30A
S214003F605B0913702B681B7C23B134484FF48B71AC
S214003F701AF04CFD204609B0BDE8F08F12680B69B8
S214003F8007FB00209847A0E73B6803AA194402AB4A
S214003F90019106F031FE5045019903462ED028685F
S214003FA02BB30BF1010B009B28685FFA8BF199424B
S214003FB0EAD3234B9B5D002BC6D0DDF800B0286803
S214003FC05FFA8BF37E2BBFD8396802AB594403AA3D
S214003FD0009106F011FE5045B6D00099286806F00C
S214003FE04FFE0BF1010B04460028E8D0ACE7039B1C
S214003FF07BB998F80020029B9A42D2D098F80030FD
S214004000D9F80020286806F08FFC0028C9D004469E
S214004010CFE7019106F034FE0199EFE7094B9B5D6F
S2140040200093A346BFE700BFA8100020C8100020DA
S214004030E0500200BE500200C2580020605102004C
S2140040409E5002005E5002000C4E02007E5002009F
S2140040500BE000F0F8B50D4616461F46FFF7F0FEDB
S2140040601F2804461CD8174B1B780BB3164B186832
S214004070164B53F82410164B1B5D3BB1324606F028
S21400408037FD0446A0B11AF066FD12E07F2D08BF8A
S21400409000253B46324651FA85F106F08FFCF0E7E4
S2140040A0FF2808D981B23B46EAB230461AF0CAFC6D
S2140040B000242046F8BD07484FF4A6711AF0A6FC67
S2140040C0F6E700BFC2580020C8100020E0500200EB
S2140040D0BE50020060510200F8B50D4616461F4657
S2140040E0FFF7AEFE1F2804461CD8164B1B7803B3FA
S2140040F0154B1868154B53F82410154B1B5D3BB138
S214004100326806F0A9FC044698B11AF024FD11E0C6
S2140041107F2D08BF00253B46324651FA85F106F052
S21400412003FCF0E7FF2807D93A46314680B21AF07A
S21400413092FC00242046F8BD06484FF4C3711AF0DE
S21400414065FCF6E7C2580020C8100020E0500200C8
S214004150BE5002006051020010B5FFF771FE0A4B18
S2140041601B7813B90024204610BD084B53F82010C6
S214004170074B0022186806F0F9FC04460028F1D028
S2140041801AF0E9FCEFE700BFC2580020E05002003A
S214004190C810002073B516461D46002B73D04BF290
S2140041A03463984210D1082D28BF082537492A467F
S2140041B030461DF046F836492A4630461DF04FF880
S2140041C030B3002002B070BDC9B27F2980B208BFEC
S2140041D00021984218D17F2241F202016846082346
S2140041E01AF030FC2A49082268461DF038F830B923
S2140041F008237F2241F2F01168461AF023FC6B4632
S21400420003CB30607160DCE741F2F01398421ED1B8
S214004210204B701ED3F8F010D3F8F4202C1F2B463A
S214004220013B9C4200F8011F4FEA11210CD1002CE3
S214004230C7D00423D9B20729F2544FEA1222C0D0BD
S21400424001339D42F6D1BCE7002BE9D1B9E700F473
S2140042507043B3F5805F0AD1C0F30B0404F17E64AB
S2140042602A4605FB014130461CF0EBFFA9E700F4A7
S2140042706043B3F5005FA4D1C0F30B0404F17E6481
S21400428004F58044ECE721209CE700BF0200E00F25
S214004290385202000081E00F2DE9F8431646C207A7
S2140042A004460F4604D52A4840F2D3111AF0AEFB56
S2140042B0F30704D526484FF4EA711AF0A7FB04F476
S2140042C07043B3F5805F24D1C4F30B04214A04F194
S2140042D07E64731E2344934215D82546DFF87090FB
S2140042E005EB0608A84529D156B17208394620467E
S2140042F01AF049FC20B116484FF402711AF086FBFA
S2140043000020BDE8F883124840F2D9111AF07EFB6F
S214004310E3E704F46043B3F5005F06D1C4F30B048F
S21400432004F17E6404F58044D7E709484FF4F07141
S2140043301AF06CFB6FF00F050024CFE715F8013B71
S214004340FF2BCFD04FF4F57148461AF05FFBC9E754
S214004350C9510200FF07E00F836970B513F001062C
S214004360044603F0020509D1EDB9C3695BB30EF04C
S21400437075FFE3692046BDE8704018471DB11B482D
S2140043809B211AF043FBA069C0F381001BF0A3FE3B
S214004390E3691BB91548A3211AF038FB20460EF036
S2140043A05DFF4DB916E0C3F307201BF0A6FEE369D8
S2140043B0B3B120460EF052FFE369607E9847BDE831
S2140043C070401BF08EBE0948A3211AF01FFB204642
S2140043D00EF044FFE36920469847002EEFD170BDEB
S2140043E00248A3211AF012FBE3E700BF485202007E
S2140043F008B50FF0CDF828B1BDE8084002483F21C7
S2140044001AF004BB08BD00BF485202002DE9F84F61
S214004410FF2B9DF82870DFF868B0DFF868A0044628
S214004420884691461D464FF0000612D1C0E900BAF4
S214004430C0E9066206618660C160FF2F07D0A369E7
S21400444043F0020323F47F4343EA0723A361BDE856
S214004450F88FFF2F03D00948BE211AF0D7FAAD0017
S21400446045F00105EDB2C4E900BA2661A660C4F8BD
S2140044701C90C4F80C80A561DFE700BF485202001C
S214004480203A00205943000010B5064C0460064C44
S214004490C2610023C0E9014303610123C160836157
S2140044A010BD00BF203A002059430000826938B58D
S2140044B002F00203D20704460D4620D553B9FF2961
S2140044C021D1A36913F00C0F17D01148FC211AF064
S2140044D09DFA12E00E48ED211AF098FAFF2DF0D062
S2140044E028461BF02FFAFF28054603D10848F52179
S2140044F01AF08CFA2DB204EB4514204638BDFF297D
S214004500FBD0002BECD10248F2211AF07FFAE7E745
S2140045104852020001481EF0A6BC00BF203A002008
S21400452001481EF0ACBC00BF203A002008B5064883
S2140045301EF06EFC1AF099FB1CF0F1FD1CF00AFE52
S214004540BDE808401CF009BE203A0020022808B545
S21400455003D11AF041FA014B186008BD503A00200A
S21400456008B506F007FF074B012018701AF08BFB02
S21400457002201AF088FBBDE8084003490348FEF70E
S2140045809FBE00BFC5580020D4100020543A00201B
S21400459038B50E4B1C786CB9204638BD1BF0DCF8DD
S2140045A004280FD01BF0D8F805461BF09AFD052D01
S2140045B00AD0F1E700201BF08EFD28B91BF0CCF8DE
S2140045C00228EBD11BF08DFD0024E5E7C45800203F
S2140045D008B5074B1B780BB1002008BDFFF7D8FFC6
S2140045E00028F9D101F0E8FD023818BF0120F4E7F1
S2140045F0C358002070B50FF033F80446FFF7E8FF05
S21400460014F0070F204D0CD158B10FF029F810BB4D
S2140046104FF0FF34FFF77EFF844228BF0446042C89
S2140046201DD82B7823B901201AF02DFB01232B70FF
S2140046301AF037FB044628B32B781BB91348F92128
S2140046401AF0E4F90EF074FF0446FFF763FF8442A5
S21400465028BF044616E00EF06BFF0446DAE7204655
S2140046601AF021FB0028DCD02B785BB119F041FE54
S214004670002106460120FEF7A9FD304619F03DFE52
S21400468000232B70204670BDC5580020BE52020085
S2140046901FB5FFF7AFFF0446FFF7E6F9A04228BFB5
S2140046A0204688B103A9FFF7C1F9034638B9CDE91A
S2140046B00000064A039906481AF0E6F918B10548BC
S2140046C092211AF0A3F9012004B010BD85EC010078
S2140046D0303A0020BE520200024A03480021FFF78B
S2140046E0D3BE00BF394700005C3A00200148FF21D6
S2140046F01AF0B4BA5C3A0020034B04480022FF21AB
S2140047001A701AF0A4BA00BFC65800205C3A0020FF
S214004710074B1B78032B08D8002B42F21072054873
S21400472008BF0022FF211AF081BAFFF7E5BF00BFDD
S214004730C65800205C3A0020F0B52A4D2B788FB082
S21400474023B309A81CF00CF8022309A88DF824301E
S2140047501CF0DCF9244B01AA064603F11007944628
S21400476018685968144603C40833BB422246F7D17A
S2140047701E4B05AA03F1100E174618685968144612
S21400478003C4083373452246F7D1CEB1012409A8E5
S21400479016F0C6FB28B9BDF8243013F0020F18BF78
S2140047A001242B781249002B08BF0021A0222046A6
S2140047B010F074FC90B92B7801332B700FB0F0BD5D
S2140047C0614609A81CF009FA0028DFD1394609A875
S2140047D01CF003FA04460028D9D0D7E7FFF798FF65
S2140047E0ECE700BFC65800203353020043530200D4
S2140047F000F8FF070A4B18220021C3E900121A7BB3
S2140048000AB9084A9A601A7C12B94FF47A72DA81A9
S21400481040F6B8325A8200229A829A75704700BFD4
S2140048207C3A0020E09304000A4B1B6810B57BB16D
S2140048301B78032B02D8B0F5007F09D1064C2368FD
S214004840034323606368184202D01AF0C0F8A082BF
S21400485010BD00BFE83F00207C3A0020024A1368E3
S21400486023EA0003136070477C3A0020024B0122C3
S21400487098601A73704700BF7C3A0020024B0122F2
S214004880D8811A74704700BF7C3A0020114B1B6811
S21400489010B5114CDBB11B78032B02D823689B059F
S2140048A015D51AF094F8A38AC01A638A80B2834298
S2140048B03EBFD4E900329343236016F0FBFA20B9DA
S2140048C0236813B9A37D012B01D1E08910BDA06830
S2140048D0FCE700BFE83F00207C3A002038B50446DD
S2140048E00D461BF0FCFB244B1B7813B120461AF038
S2140048F054FC402C26D006D87CB1312C17D0BDE80D
S21400490038401BF0EEBB872C03D07334E4B2012C86
S214004910F5D80220FFF7A2FFF1E74FF40070FFF78B
S2140049209DFF0220FFF780FF144B1C71E7E74FF452
S2140049300070FFF793FF0220FFF790FF0F4B002257
S2140049401A71DCE71BF071FB0028D8D10B4C2379D9
S214004950022001332371FFF781FF4FF40070FFF749
S21400496063FF2379AB42CAD31AF018FC0028C6D1DD
S2140049701AF0EDFBC3E700BFC7580020943A0020AA
S214004980024A03480021FFF77FBD00BFA5F10100E2
S2140049909C3A002038B500201BF09DFB124B1B688C
S2140049A093B11B78022B0FD91AF0D6FE022816D127
S2140049B00E4C2568FFF76AFFA842206008D02268E0
S2140049C00B48FF211AF032F9BDE838401BF089BBCE
S2140049D00748FF211AF042F90028F5D1EFE704480E
S2140049E0FF211AF034F9EFE7E83F0020943A002060
S2140049F09C3A0020034B1B681878012808BF022049
S214004A00704700BFE83F002001480DF07FBF00BFA1
S214004A10D254002070B5094E094D0A4C33782178DF
S214004A202A7804F0F9FA002333702B702370BDE85F
S214004A3070400548FF211AF00AB900BFE45800206C
S214004A40D9580020DA580020BC3A002008B5104893
S214004A50FF211AF0FCF80F4B1B7813F020000CD047
S214004A6001F07CF91EF079FD0120FFF7D3FFBDE8C9
S214004A7008404FF48060FFF7F1BEDB0603D5BDE8C3
S214004A80084001F073B90121B4201AF0F1FCECE7FC
S214004A90BC3A0020E4580020024A03480021FFF7F1
S214004AA0F3BC00BF4D4A0000BC3A002010B5184CBD
S214004AB02378DA0625D51E280ED065280CD00328C4
S214004AC020D143F020032370BDE81040114841F286
S214004AD08832FF211AF0AAB823F020032370FEF7CD
S214004AE075FA4FF4FA63B0FBF3F202FB1300C21838
S214004AF092B20848FF211AF099F8237823F01003A1
S214004B00237010BD1EF029FDAE20FFF783FFF4E7EB
S214004B10E4580020BC3A002011B1024B18607047E0
S214004B20014BFBE7DC100020E010002030B53B4CCA
S214004B302378DD1F012B8FB0EDB255D0042B53D058
S214004B40032B41F6041252D0991F4B424B415B0097
S214004B5013433348ADF80C301AF031FB48B9314BEB
S214004B602F4A03F1100153F8040B42F8040B8B4252
S214004B70F9D12378032B3CD0062B3AD02A4B0DF1E3
S214004B800E0203F1100153F8040B42F8040B8B429B
S214004B90F9D103A816F0C8FAB72804460BD1012DA0
S214004BA01FD8BDF80C3003A823F40053ADF80C3022
S214004BB016F0BAFA0446A4B9302016F08FF9044667
S214004BC078B91AF053FB012D0BD8184A10685168B3
S214004BD001AB03C32246164901A81CF04FF8A0B14A
S214004BE0182420460FB030BD43F60412ACE702236B
S214004BF0AEE70B4A0DF10E0302F1100152F8040B5A
S214004C0043F8040B8A42F9D1C3E70549224601A8B6
S214004C101CF034F80028E3D1E3E700BFE458002096
S214004C20C958002053530200645302007553020013
S214004C307E5302001FB50446252011F039F81C22C9
S214004C4000210D481CF035FB0C4B1878FFF7D2FE00
S214004C50022814BF0123042303208DF800301EF021
S214004C6048F904238DF808306846054B01940393F1
S214004C7001F004F804B010BDDC3A0020E45800202F
S214004C802D4E000008B50E490A78531CDBB2072BE0
S214004C900B7001D0092B04D19420FFF7BBFE9420A3
S214004CA008BD02F0FB02032A07D1064B186800284D
S214004CB0F2D0FFF7BFFF3D20F2E70020F0E700BF8D
S214004CC0E4580020DC10002070B5154C154E236803
S214004CD03268134321D0144B1B68F3B1134D2B7865
S214004CE0DBB91AF039FD90B94FF48060FFF79CFDF0
S214004CF0246844B101232B7001F030F82046BDE84B
S214004D007040FFF797BF042334682B70F4E7BDE8C4
S214004D1070400121B4201AF0ABBB702070BD00BFFC
S214004D20E0100020DC100020E83F0020E4580020BF
S214004D3070B5214D287838B12049214808221CF04A
S214004D408EFA003818BF01201E4C261D07E01B49AE
S214004D501B4808221CF083FA003818BF0120227A6C
S214004D602368D340DB0700D558B1304610F06CFFFF
S214004D70E8B92B78002BEAD1227A2368D340DA07E9
S214004D80F3D5114B1878FFF735FE012303220F49A0
S214004D9010F0B6FA0E4A13780133137058B1BDE816
S214004DA07040FFF737BEBDE8704000F013B8FFF75D
S214004DB069FF0028F7D070BDE3580020DB580020BC
S214004DC0EE3A0020DC3A0020E4580020E03A0020CA
S214004DD0D958002008B5FFF7A9FE88B90F4B1B78F5
S214004DE0032B12D89BB10E4B0E481B6840F8043BB1
S214004DF010F008FF68B1BDE808400120FFF70ABEC2
S214004E00FFF740FF0028E6D008BD072BEBD0064B87
S214004E10EAE7BDE80840FFF78BBF00BFE458002074
S214004E20E0100020DC3A0020DC10002010B5134C07
S214004E30237813B3838913F4407F1ED00368E3B945
S214004E4010F030FF0E4B187018B1BDE81040FFF799
S214004E50C1BF2378062B06D8032B06D9BDE8104021
S214004E60AB20FFF7D7BD082BF8D004232370054BE3
S214004E70BDE810401868FFF7DDBE10BDE4580020FE
S214004E80DA580020DC10002030B5394D2B7887B07A
S214004E9004462BBB01A81BF063FC022301A88DF877
S214004EA004301BF033FEB0B9324901A81BF095FE62
S214004EB088B1902C0FD1FEF789F847F23153B0FB3A
S214004EC0F3F202FB130000F51C50103080B200F025
S214004ED04DFF07B030BD912CFBD100F073FFF8E713
S214004EE0902824D1032B11D0062B0FD0224B1B78F1
S214004EF0DA070BD401A816F013F818B9BDF8043079
S214004F009B0703D42B7843F010032B70FEF75EF854
S214004F104FF4FA63B0FBF3F202FB1300C218174813
S214004F2092B2FF2107B0BDE8304019F07FBE0EF008
S214004F30F5FA0028CDD12B78013B072B11D8104865
S214004F4010F082FE40B1FFF79DFE0028C1D107B0E9
S214004F50BDE83040FFF73EBF07B0BDE83040FFF782
S214004F60E7BEAE2007B0BDE83040FFF753BD00BF38
S214004F70E45800207E530200C8580020BC3A0020A7
S214004F80E03A0020034A03460120C3E9032000223A
S214004F901A7070470100FEFF2DE9F0478AB0112213
S214004FA0FF2168461CF085F94FF000084FF0010914
S214004FB000F056F91FFA88F4A04214D8254F0026B0
S214004FC04FF01408C6F3CC0328336B4406F00702F0
S214004FD013F8283CD340DB072DD40136832EF1D1BD
S214004FE00AB0BDE8F087204605A900F085F8DFF88E
S214004FF064A00024C4F3CC0505F128030DEB0305DB
S21400500004F0070715F8286C26FA07F3DA070AD51E
S214005010514605A81AF0EEF828B109FA07F726EA6D
S214005020070605F8286C0134832C0AF1140AE1D12E
S21400503008F10108BCE708FB06750FCD05AC0FC4E8
S2140050402B68236005A800F0CFF94FF6FF7398424F
S214005050C3D1C5E79053020070B410B3164B417825
S21400506000221C465D788D421DD146885D88AE4282
S21400507019D186889D88AE4215D186799D79AE4233
S21400508011D106891D89AE420DD10346002103F8D1
S2140050900C1B142101FB0242D2E9030183E8030042
S2140050A0012070BC70470132832A03F11403D9D162
S2140050B070BCFFF767BF00BF9053020010B50C46E8
S2140050C002F05CF908B9032C12D11AF045FB04284B
S2140050D00ED01AF041FB05280AD0064801F0E8FC7D
S2140050E0B42801D11AF07CFFBDE8104001F0F0BCF6
S2140050F010BD00BFCBF10100C2280A4606D800F555
S214005100B03103481423006805F058BC704700BF50
S214005110C81000202DE9F04FDFF8A8B0274C87B064
S21400512000274FF0FF36BBF80030B8B2834209D8EC
S214005130731C3BD022483246FF2107B0BDE8F04F33
S21400514019F074BD01A9FFF7D7FF9DF8050001F01F
S2140051509FFAF8B19DF80480B8F1000F1AD1BDF897
S21400516010A0BDF8129019F037FC1821BBB24B43C3
S2140051700246E018E158007CA2EB010C4FF47A736B
S21400518050B103FB0AF363450ED30B44981A8642CC
S21400519028BF06460137C6E74D466B43FAD063453F
S2140051A0F5D31944881AF2E74046F0E70448FF2191
S2140051B007B0BDE8F04F19F04ABD00BFA8140020A4
S2140051C0F83A0020D4540020C2280A4606D800F533
S2140051D0B03103481423006805F0A6BB704700BF33
S2140051E0C81000202DE9F041014688B020B1022801
S2140051F009D008B0BDE8F081FF23154A1548009392
S214005200FFF704F9F5E70024134E27464FF0010890
S214005210A5B2284603A98DF80D70FFF76DFF9DF81F
S2140052200D0068B101F034FA20B19DF80C300BB9CE
S21400523086F810800134C32C06F11806E8D12546FE
S214005240064B1D8008B0BDE8F041FFF763BF00BF06
S2140052505D550000F83A0020A8140020D454002021
S214005260014B1888704700BFD45400202DE9F04F3A
S214005270437D077DDFF86C91002B036889B0598861
S214005280574B0093028A04464FF009030DBF0820CF
S21400529000204FF080084FF0400801F0E3FBA289A1
S2140052A0BB1C934205DB1BF094F8012009B0BDE857
S2140052B0F08F3946A0681AF0F8FE791C0546A289D8
S2140052C0A06889B21AF0EBFE0337012D0646BFB27E
S2140052D015D8236859885879238A0093324643465E
S2140052E01AF0E3FA824600283FD1862001F024FC1B
S2140052F0284601F021FC30461AF0B3FECFE78520A1
S214005300F4E703A9FFF7F8FE9DF80C30AB4222D174
S21400531023689DF80D105A7991421CD1BDF80E10E5
S2140053205A88914217D1BDF81020B24213D19DF889
S214005330122042450FD1BDF81410228A91420AD19C
S214005340B5B1BDF81810E288914204D19DF81A2034
S2140053501B799A4238D00BF1010BB9F800305FFA8E
S2140053608BF08342CDD88B20C0E74FF0000BF4E7DC
S214005370284601F0E1FB284601F0DEFB30461AF035
S21400538070FE9AF8020001F0D7FBBDF818001AF07C
S21400539068FEBDF81A001AF064FE9AF8020002F0E1
S2140053A0ABF900287FF47BAF9AF8020000F096FF76
S2140053B0079E0546002D3FF472AFF0B2013D01F0A6
S2140053C0BBFB360AEDB2F5E7002001F0B5FB012085
S2140053D001F0B2FB30461AF044FEBDF81C008BE725
S2140053E09E5E0200D454002038B5084D2C88C22C8E
S2140053F0014607D82046FFF7E7FE2B8801332B80AF
S214005400204638BD4FF6FF74FAE700BFD45400209C
S2140054102DE9F0431C4F91B069468046FFF76CFEBD
S214005420388800238DF80130431E98B280453880B6
S21400543009D169464046FFF7C7FE684619F0C3FE25
S21400544011B0BDE8F08305A9FFF756FE0F4C3E8865
S2140054504FF0180909FB06460FCE0AAD0FC596E8B1
S21400546003000AAE85E8030005A94046FFF7ACFE38
S2140054700FCE09FB08440FC495E8030084E8030038
S21400548038886946D7E700BFD4540020A814002007
S21400549038B5074D2C882CB90648FF2119F0D7FBE4
S2140054A0204638BD601E80B2FFF7B2FFF2E700BFAD
S2140054B0D4540020F83A00202DE9F347264F9DF8F3
S2140054C02890CDE900129A46182303FB0973144668
S2140054D0D3E902231BF035F8064620460D4602F0B7
S2140054E00BF904F0FD03382B80460FD10094DAF850
S2140054F0100032462B46002119F09FFEB8F1010F2E
S2140055001BD135431ED102B0BDE8F087392CDAF83E
S21400551010300BD107EE906A07EE103AF4EEC77A19
S214005520F1EE10FAACBF01200020E7E79E4275F1CD
S21400553000032CBF01200020E0E7B8F1000FE2D105
S2140055400028E0D0182303FB097701233B7402B040
S214005550BDE8F047FFF7DEBDA81400202DE9F04FA8
S2140055609FB00025DFF8B0910495A8462F462C463C
S214005570664B1B88A8B2834209D81CB16188207983
S214005580FFF79CFDFFF7C6FD1FB0BDE8F08F0CA926
S214005590FFF7B2FDAEB219F01FFA18237343834625
S2140055A009EB030A9DF8310059F80330059301F022
S2140055B06FF8002800F0A7809DF83020002A40F001
S2140055C0A280059BABEB0300BDF83C304FF47A722B
S2140055D05343834200F297809AF8103043B9BDF8DF
S2140055E03E30002B00F08F805343834200F28B80C6
S2140055F031230022CDE9013211AB00930DF11D02DB
S2140056000DF11E03E9B20CA8FAF75EFD002870D172
S214005610BDF81EB0ECB120799DF831306188834228
S21400562015D1BDF832308B4211D19DF83630B7EB2C
S214005630D31F0CD1BDF83830049A934207D1344BAF
S2140056401A880BF1030352FA83F3434545DDFFF74F
S21400565035FD01F04DFA04469DF936002D4B0093BA
S214005660C043C00F0A23BDF83820BDF832109DF89D
S2140056703670C00001F0F6F99DF8313023714FF412
S2140056808A53E380BDF838300493FF094FF0000AD0
S2140056904FF0FF0808A95FFA8AF01EF0F4FDB8B9CB
S2140056A09DF821109DF83120914211D1BDF82210AD
S2140056B0BDF8322091420BD19DF82D109DF82000A8
S2140056C022461AF08CFE404528BF40465FFA80F816
S2140056D00AF1010ABAF17F0FDCD1BDF834001AF0E6
S2140056E0C0FC9DF81D0001F027FA594611A801F0EC
S2140056F037FA18235E4309EB060300221A7419F0E2
S2140057006BF949F80600013532E700BFD454002093
S214005710D85400209E5E0200A81400202DE9F04315
S214005720DFF858810389B8F800908BB004460093E0
S21400573083798288418840781AF0B7F8002800F00C
S2140057409580E78927B1A389BB4200F291800027A4
S214005750B8F80030BDB2AB4214D84D460126E289F7
S2140057604FF6FF739A4226D146B9B8F80030AB42DE
S21400577002D92846FFF74CFEFFF7CCFC00200BB002
S214005780BDE8F08305A92846FFF7B6FC9DF814305F
S2140057907BB92268059B5340FF2B0AD86368069E98
S2140057A05E4036F07F4604D1BDF81C2023899A421D
S2140057B0D5D00137CCE7E2689A422BD0002E53D1E1
S2140057C0D4E90323CDE9082305A819F0FCFC00283A
S2140057D0D5D1B8F80030AB4204BF6B1CA8F8003037
S2140057E019F0FAF81823244A6B43D418D050002333
S2140057F0CDE9013300931A46E9B205A8FAF764FC2E
S21400580018B100220023C4E9022305A92846FFF7A1
S214005810DBFCB1E7234605AA04F1100C18685968AA
S214005820174603C7083363453A46F7D11868386009
S21400583005A8FFF711FC0028C0D0C22D1AD80023F7
S2140058408DF8143063788DF815306388ADF816300F
S214005850A388ADF81830A3798DF81A302389ADF8EF
S2140058601C300028B0D1ABE70020E6E7862086E7AC
S214005870872084E7892082E7A8140020D4540020DB
S2140058802DE9F04F437D057DDFF874A2002B8DB027
S21400589014BF80234023029303685988974B0093D4
S2140058A0028A04464FF007030CBF0820002001F0D0
S2140058B0D9F84FF00009A289EF1C974206DBB9F130
